{
  "_format": "hh-sol-artifact-1",
  "contractName": "DAOTreasury",
  "sourceName": "contracts/dao.sol",
  "abi": [
    {
      "inputs": [],
      "stateMutability": "nonpayable",
      "type": "constructor"
    },
    {
      "anonymous": false,
      "inputs": [
        {
          "indexed": false,
          "internalType": "uint256",
          "name": "id",
          "type": "uint256"
        },
        {
          "indexed": false,
          "internalType": "address",
          "name": "recipient",
          "type": "address"
        },
        {
          "indexed": false,
          "internalType": "uint256",
          "name": "amount",
          "type": "uint256"
        },
        {
          "indexed": false,
          "internalType": "string",
          "name": "description",
          "type": "string"
        }
      ],
      "name": "ProposalCreated",
      "type": "event"
    },
    {
      "anonymous": false,
      "inputs": [
        {
          "indexed": false,
          "internalType": "uint256",
          "name": "id",
          "type": "uint256"
        },
        {
          "indexed": false,
          "internalType": "address",
          "name": "recipient",
          "type": "address"
        },
        {
          "indexed": false,
          "internalType": "uint256",
          "name": "amount",
          "type": "uint256"
        }
      ],
      "name": "ProposalExecuted",
      "type": "event"
    },
    {
      "anonymous": false,
      "inputs": [
        {
          "indexed": false,
          "internalType": "uint256",
          "name": "id",
          "type": "uint256"
        },
        {
          "indexed": false,
          "internalType": "address",
          "name": "voter",
          "type": "address"
        }
      ],
      "name": "ProposalVoted",
      "type": "event"
    },
    {
      "inputs": [
        {
          "internalType": "uint256",
          "name": "_proposalId",
          "type": "uint256"
        }
      ],
      "name": "executeProposal",
      "outputs": [],
      "stateMutability": "nonpayable",
      "type": "function"
    },
    {
      "inputs": [
        {
          "internalType": "address",
          "name": "",
          "type": "address"
        }
      ],
      "name": "hasVoted",
      "outputs": [
        {
          "internalType": "bool",
          "name": "",
          "type": "bool"
        }
      ],
      "stateMutability": "view",
      "type": "function"
    },
    {
      "inputs": [],
      "name": "owner",
      "outputs": [
        {
          "internalType": "address",
          "name": "",
          "type": "address"
        }
      ],
      "stateMutability": "view",
      "type": "function"
    },
    {
      "inputs": [],
      "name": "proposalCount",
      "outputs": [
        {
          "internalType": "uint256",
          "name": "",
          "type": "uint256"
        }
      ],
      "stateMutability": "view",
      "type": "function"
    },
    {
      "inputs": [
        {
          "internalType": "uint256",
          "name": "",
          "type": "uint256"
        }
      ],
      "name": "proposals",
      "outputs": [
        {
          "internalType": "uint256",
          "name": "id",
          "type": "uint256"
        },
        {
          "internalType": "address payable",
          "name": "recipient",
          "type": "address"
        },
        {
          "internalType": "uint256",
          "name": "amount",
          "type": "uint256"
        },
        {
          "internalType": "string",
          "name": "description",
          "type": "string"
        },
        {
          "internalType": "uint256",
          "name": "votes",
          "type": "uint256"
        },
        {
          "internalType": "bool",
          "name": "executed",
          "type": "bool"
        }
      ],
      "stateMutability": "view",
      "type": "function"
    },
    {
      "inputs": [
        {
          "internalType": "address payable",
          "name": "_recipient",
          "type": "address"
        },
        {
          "internalType": "uint256",
          "name": "_amount",
          "type": "uint256"
        },
        {
          "internalType": "string",
          "name": "_description",
          "type": "string"
        }
      ],
      "name": "submitProposal",
      "outputs": [],
      "stateMutability": "nonpayable",
      "type": "function"
    },
    {
      "inputs": [
        {
          "internalType": "uint256",
          "name": "_proposalId",
          "type": "uint256"
        }
      ],
      "name": "voteOnProposal",
      "outputs": [],
      "stateMutability": "nonpayable",
      "type": "function"
    },
    {
      "inputs": [
        {
          "internalType": "address",
          "name": "",
          "type": "address"
        }
      ],
      "name": "voters",
      "outputs": [
        {
          "internalType": "bool",
          "name": "",
          "type": "bool"
        }
      ],
      "stateMutability": "view",
      "type": "function"
    },
    {
      "stateMutability": "payable",
      "type": "receive"
    }
  ],
  "bytecode": "0x608060405234801561001057600080fd5b50336000806101000a81548173ffffffffffffffffffffffffffffffffffffffff021916908373ffffffffffffffffffffffffffffffffffffffff16021790555061171b806100606000396000f3fe60806040526004361061007f5760003560e01c80638da5cb5b1161004e5780638da5cb5b1461015c578063a3ec138d14610187578063add68edc146101c4578063da35c664146101ed57610086565b8063013cf08b1461008b57806309eef43e146100cd5780630d61b5191461010a5780634cf743581461013357610086565b3661008657005b600080fd5b34801561009757600080fd5b506100b260048036038101906100ad9190610ab8565b610218565b6040516100c496959493929190610be0565b60405180910390f35b3480156100d957600080fd5b506100f460048036038101906100ef9190610c86565b610309565b6040516101019190610cb3565b60405180910390f35b34801561011657600080fd5b50610131600480360381019061012c9190610ab8565b610329565b005b34801561013f57600080fd5b5061015a60048036038101906101559190610e2f565b61055a565b005b34801561016857600080fd5b506101716107f2565b60405161017e9190610ead565b60405180910390f35b34801561019357600080fd5b506101ae60048036038101906101a99190610c86565b610816565b6040516101bb9190610cb3565b60405180910390f35b3480156101d057600080fd5b506101eb60048036038101906101e69190610ab8565b610836565b005b3480156101f957600080fd5b50610202610a68565b60405161020f9190610ec8565b60405180910390f35b60026020528060005260406000206000915090508060000154908060010160009054906101000a900473ffffffffffffffffffffffffffffffffffffffff169080600201549080600301805461026d90610f12565b80601f016020809104026020016040519081016040528092919081815260200182805461029990610f12565b80156102e65780601f106102bb576101008083540402835291602001916102e6565b820191906000526020600020905b8154815290600101906020018083116102c957829003601f168201915b5050505050908060040154908060050160009054906101000a900460ff16905086565b60046020528060005260406000206000915054906101000a900460ff1681565b60008054906101000a900473ffffffffffffffffffffffffffffffffffffffff1673ffffffffffffffffffffffffffffffffffffffff163373ffffffffffffffffffffffffffffffffffffffff16146103b7576040517f08c379a00000000000000000000000000000000000000000000000000000000081526004016103ae90610fb5565b60405180910390fd5b60006002600083815260200190815260200160002090506000816004015411610415576040517f08c379a000000000000000000000000000000000000000000000000000000000815260040161040c90611021565b60405180910390fd5b8060050160009054906101000a900460ff1615610467576040517f08c379a000000000000000000000000000000000000000000000000000000000815260040161045e906110b3565b60405180910390fd5b60018160050160006101000a81548160ff0219169083151502179055508060010160009054906101000a900473ffffffffffffffffffffffffffffffffffffffff1673ffffffffffffffffffffffffffffffffffffffff166108fc82600201549081150290604051600060405180830381858888f193505050501580156104f2573d6000803e3d6000fd5b507f3b7c90df35b419337cff0919fe91849006607bb66c4373623f06f9d48c1ebb98828260010160009054906101000a900473ffffffffffffffffffffffffffffffffffffffff16836002015460405161054e93929190611132565b60405180910390a15050565b60008054906101000a900473ffffffffffffffffffffffffffffffffffffffff1673ffffffffffffffffffffffffffffffffffffffff163373ffffffffffffffffffffffffffffffffffffffff16146105e8576040517f08c379a00000000000000000000000000000000000000000000000000000000081526004016105df90610fb5565b60405180910390fd5b600073ffffffffffffffffffffffffffffffffffffffff168373ffffffffffffffffffffffffffffffffffffffff1603610657576040517f08c379a000000000000000000000000000000000000000000000000000000000815260040161064e906111b5565b60405180910390fd5b6000821161069a576040517f08c379a000000000000000000000000000000000000000000000000000000000815260040161069190611221565b60405180910390fd5b600160008154809291906106ad90611270565b91905055506040518060c0016040528060015481526020018473ffffffffffffffffffffffffffffffffffffffff16815260200183815260200182815260200160008152602001600015158152506002600060015481526020019081526020016000206000820151816000015560208201518160010160006101000a81548173ffffffffffffffffffffffffffffffffffffffff021916908373ffffffffffffffffffffffffffffffffffffffff160217905550604082015181600201556060820151816003019081610780919061145a565b506080820151816004015560a08201518160050160006101000a81548160ff0219169083151502179055509050507f85b1e5bd1e58840265c40582ff09f8cbfab823e041a824467b654a99b5156d396001548484846040516107e5949392919061152c565b60405180910390a1505050565b60008054906101000a900473ffffffffffffffffffffffffffffffffffffffff1681565b60036020528060005260406000206000915054906101000a900460ff1681565b600360003373ffffffffffffffffffffffffffffffffffffffff1673ffffffffffffffffffffffffffffffffffffffff16815260200190815260200160002060009054906101000a900460ff166108c2576040517f08c379a00000000000000000000000000000000000000000000000000000000081526004016108b9906115c4565b60405180910390fd5b600460003373ffffffffffffffffffffffffffffffffffffffff1673ffffffffffffffffffffffffffffffffffffffff16815260200190815260200160002060009054906101000a900460ff161561094f576040517f08c379a000000000000000000000000000000000000000000000000000000000815260040161094690611630565b60405180910390fd5b60006002600083815260200190815260200160002060000154036109a8576040517f08c379a000000000000000000000000000000000000000000000000000000000815260040161099f9061169c565b60405180910390fd5b6002600082815260200190815260200160002060040160008154809291906109cf90611270565b91905055506001600460003373ffffffffffffffffffffffffffffffffffffffff1673ffffffffffffffffffffffffffffffffffffffff16815260200190815260200160002060006101000a81548160ff0219169083151502179055507f34647120636ce03d739347e28e9d1bdd34fd03d066ae60439fb1be2721ad16cd8133604051610a5d9291906116bc565b60405180910390a150565b60015481565b6000604051905090565b600080fd5b600080fd5b6000819050919050565b610a9581610a82565b8114610aa057600080fd5b50565b600081359050610ab281610a8c565b92915050565b600060208284031215610ace57610acd610a78565b5b6000610adc84828501610aa3565b91505092915050565b610aee81610a82565b82525050565b600073ffffffffffffffffffffffffffffffffffffffff82169050919050565b6000610b1f82610af4565b9050919050565b610b2f81610b14565b82525050565b600081519050919050565b600082825260208201905092915050565b60005b83811015610b6f578082015181840152602081019050610b54565b60008484015250505050565b6000601f19601f8301169050919050565b6000610b9782610b35565b610ba18185610b40565b9350610bb1818560208601610b51565b610bba81610b7b565b840191505092915050565b60008115159050919050565b610bda81610bc5565b82525050565b600060c082019050610bf56000830189610ae5565b610c026020830188610b26565b610c0f6040830187610ae5565b8181036060830152610c218186610b8c565b9050610c306080830185610ae5565b610c3d60a0830184610bd1565b979650505050505050565b6000610c5382610af4565b9050919050565b610c6381610c48565b8114610c6e57600080fd5b50565b600081359050610c8081610c5a565b92915050565b600060208284031215610c9c57610c9b610a78565b5b6000610caa84828501610c71565b91505092915050565b6000602082019050610cc86000830184610bd1565b92915050565b610cd781610b14565b8114610ce257600080fd5b50565b600081359050610cf481610cce565b92915050565b600080fd5b600080fd5b7f4e487b7100000000000000000000000000000000000000000000000000000000600052604160045260246000fd5b610d3c82610b7b565b810181811067ffffffffffffffff82111715610d5b57610d5a610d04565b5b80604052505050565b6000610d6e610a6e565b9050610d7a8282610d33565b919050565b600067ffffffffffffffff821115610d9a57610d99610d04565b5b610da382610b7b565b9050602081019050919050565b82818337600083830152505050565b6000610dd2610dcd84610d7f565b610d64565b905082815260208101848484011115610dee57610ded610cff565b5b610df9848285610db0565b509392505050565b600082601f830112610e1657610e15610cfa565b5b8135610e26848260208601610dbf565b91505092915050565b600080600060608486031215610e4857610e47610a78565b5b6000610e5686828701610ce5565b9350506020610e6786828701610aa3565b925050604084013567ffffffffffffffff811115610e8857610e87610a7d565b5b610e9486828701610e01565b9150509250925092565b610ea781610c48565b82525050565b6000602082019050610ec26000830184610e9e565b92915050565b6000602082019050610edd6000830184610ae5565b92915050565b7f4e487b7100000000000000000000000000000000000000000000000000000000600052602260045260246000fd5b60006002820490506001821680610f2a57607f821691505b602082108103610f3d57610f3c610ee3565b5b50919050565b7f4f6e6c79206f776e65722063616e2063616c6c20746869732066756e6374696f60008201527f6e00000000000000000000000000000000000000000000000000000000000000602082015250565b6000610f9f602183610b40565b9150610faa82610f43565b604082019050919050565b60006020820190508181036000830152610fce81610f92565b9050919050565b7f50726f706f73616c20686173206e6f74206265656e20617070726f7665640000600082015250565b600061100b601e83610b40565b915061101682610fd5565b602082019050919050565b6000602082019050818103600083015261103a81610ffe565b9050919050565b7f50726f706f73616c2068617320616c7265616479206265656e2065786563757460008201527f6564000000000000000000000000000000000000000000000000000000000000602082015250565b600061109d602283610b40565b91506110a882611041565b604082019050919050565b600060208201905081810360008301526110cc81611090565b9050919050565b6000819050919050565b60006110f86110f36110ee84610af4565b6110d3565b610af4565b9050919050565b600061110a826110dd565b9050919050565b600061111c826110ff565b9050919050565b61112c81611111565b82525050565b60006060820190506111476000830186610ae5565b6111546020830185611123565b6111616040830184610ae5565b949350505050565b7f496e76616c696420726563697069656e74206164647265737300000000000000600082015250565b600061119f601983610b40565b91506111aa82611169565b602082019050919050565b600060208201905081810360008301526111ce81611192565b9050919050565b7f416d6f756e74206d7573742062652067726561746572207468616e207a65726f600082015250565b600061120b602083610b40565b9150611216826111d5565b602082019050919050565b6000602082019050818103600083015261123a816111fe565b9050919050565b7f4e487b7100000000000000000000000000000000000000000000000000000000600052601160045260246000fd5b600061127b82610a82565b91507fffffffffffffffffffffffffffffffffffffffffffffffffffffffffffffffff82036112ad576112ac611241565b5b600182019050919050565b60008190508160005260206000209050919050565b60006020601f8301049050919050565b600082821b905092915050565b60006008830261131a7fffffffffffffffffffffffffffffffffffffffffffffffffffffffffffffffff826112dd565b61132486836112dd565b95508019841693508086168417925050509392505050565b600061135761135261134d84610a82565b6110d3565b610a82565b9050919050565b6000819050919050565b6113718361133c565b61138561137d8261135e565b8484546112ea565b825550505050565b600090565b61139a61138d565b6113a5818484611368565b505050565b5b818110156113c9576113be600082611392565b6001810190506113ab565b5050565b601f82111561140e576113df816112b8565b6113e8846112cd565b810160208510156113f7578190505b61140b611403856112cd565b8301826113aa565b50505b505050565b600082821c905092915050565b600061143160001984600802611413565b1980831691505092915050565b600061144a8383611420565b9150826002028217905092915050565b61146382610b35565b67ffffffffffffffff81111561147c5761147b610d04565b5b6114868254610f12565b6114918282856113cd565b600060209050601f8311600181146114c457600084156114b2578287015190505b6114bc858261143e565b865550611524565b601f1984166114d2866112b8565b60005b828110156114fa578489015182556001820191506020850194506020810190506114d5565b868310156115175784890151611513601f891682611420565b8355505b6001600288020188555050505b505050505050565b60006080820190506115416000830187610ae5565b61154e6020830186611123565b61155b6040830185610ae5565b818103606083015261156d8184610b8c565b905095945050505050565b7f596f7520617265206e6f7420617574686f72697a656420746f20766f74650000600082015250565b60006115ae601e83610b40565b91506115b982611578565b602082019050919050565b600060208201905081810360008301526115dd816115a1565b9050919050565b7f596f75206861766520616c726561647920766f74656400000000000000000000600082015250565b600061161a601683610b40565b9150611625826115e4565b602082019050919050565b600060208201905081810360008301526116498161160d565b9050919050565b7f496e76616c69642070726f706f73616c20494400000000000000000000000000600082015250565b6000611686601383610b40565b915061169182611650565b602082019050919050565b600060208201905081810360008301526116b581611679565b9050919050565b60006040820190506116d16000830185610ae5565b6116de6020830184610e9e565b939250505056fea26469706673582212207a2f64608a54e74448425203dd91491aa3dd646bb5a9a36db658bedf8451c59a64736f6c63430008180033",
  "linkReferences": {},
  "deployedLinkReferences": {}
}